{
  "contractName": "NaraMalsamiToken",
  "abi": [
    {
      "constant": true,
      "inputs": [],
      "name": "name",
      "outputs": [
        {
          "name": "",
          "type": "string"
        }
      ],
      "payable": false,
      "stateMutability": "view",
      "type": "function"
    },
    {
      "constant": false,
      "inputs": [
        {
          "name": "spender",
          "type": "address"
        },
        {
          "name": "value",
          "type": "uint256"
        }
      ],
      "name": "approve",
      "outputs": [
        {
          "name": "",
          "type": "bool"
        }
      ],
      "payable": false,
      "stateMutability": "nonpayable",
      "type": "function"
    },
    {
      "constant": false,
      "inputs": [
        {
          "name": "account",
          "type": "address"
        }
      ],
      "name": "addWhitelisted",
      "outputs": [],
      "payable": false,
      "stateMutability": "nonpayable",
      "type": "function"
    },
    {
      "constant": true,
      "inputs": [],
      "name": "totalSupply",
      "outputs": [
        {
          "name": "",
          "type": "uint256"
        }
      ],
      "payable": false,
      "stateMutability": "view",
      "type": "function"
    },
    {
      "constant": false,
      "inputs": [
        {
          "name": "from",
          "type": "address"
        },
        {
          "name": "to",
          "type": "address"
        },
        {
          "name": "value",
          "type": "uint256"
        }
      ],
      "name": "transferFrom",
      "outputs": [
        {
          "name": "",
          "type": "bool"
        }
      ],
      "payable": false,
      "stateMutability": "nonpayable",
      "type": "function"
    },
    {
      "constant": false,
      "inputs": [
        {
          "name": "account",
          "type": "address"
        }
      ],
      "name": "removeWhitelisted",
      "outputs": [],
      "payable": false,
      "stateMutability": "nonpayable",
      "type": "function"
    },
    {
      "constant": true,
      "inputs": [],
      "name": "DECIMALS",
      "outputs": [
        {
          "name": "",
          "type": "uint8"
        }
      ],
      "payable": false,
      "stateMutability": "view",
      "type": "function"
    },
    {
      "constant": true,
      "inputs": [],
      "name": "INITIAL_SUPPLY",
      "outputs": [
        {
          "name": "",
          "type": "uint256"
        }
      ],
      "payable": false,
      "stateMutability": "view",
      "type": "function"
    },
    {
      "constant": true,
      "inputs": [],
      "name": "decimals",
      "outputs": [
        {
          "name": "",
          "type": "uint8"
        }
      ],
      "payable": false,
      "stateMutability": "view",
      "type": "function"
    },
    {
      "constant": false,
      "inputs": [
        {
          "name": "spender",
          "type": "address"
        },
        {
          "name": "addedValue",
          "type": "uint256"
        }
      ],
      "name": "increaseAllowance",
      "outputs": [
        {
          "name": "",
          "type": "bool"
        }
      ],
      "payable": false,
      "stateMutability": "nonpayable",
      "type": "function"
    },
    {
      "constant": true,
      "inputs": [
        {
          "name": "account",
          "type": "address"
        }
      ],
      "name": "isWhitelisted",
      "outputs": [
        {
          "name": "",
          "type": "bool"
        }
      ],
      "payable": false,
      "stateMutability": "view",
      "type": "function"
    },
    {
      "constant": false,
      "inputs": [],
      "name": "renounceWhitelistAdmin",
      "outputs": [],
      "payable": false,
      "stateMutability": "nonpayable",
      "type": "function"
    },
    {
      "constant": true,
      "inputs": [
        {
          "name": "owner",
          "type": "address"
        }
      ],
      "name": "balanceOf",
      "outputs": [
        {
          "name": "",
          "type": "uint256"
        }
      ],
      "payable": false,
      "stateMutability": "view",
      "type": "function"
    },
    {
      "constant": false,
      "inputs": [],
      "name": "renounceOwnership",
      "outputs": [],
      "payable": false,
      "stateMutability": "nonpayable",
      "type": "function"
    },
    {
      "constant": false,
      "inputs": [
        {
          "name": "account",
          "type": "address"
        }
      ],
      "name": "addWhitelistAdmin",
      "outputs": [],
      "payable": false,
      "stateMutability": "nonpayable",
      "type": "function"
    },
    {
      "constant": true,
      "inputs": [],
      "name": "owner",
      "outputs": [
        {
          "name": "",
          "type": "address"
        }
      ],
      "payable": false,
      "stateMutability": "view",
      "type": "function"
    },
    {
      "constant": true,
      "inputs": [],
      "name": "isOwner",
      "outputs": [
        {
          "name": "",
          "type": "bool"
        }
      ],
      "payable": false,
      "stateMutability": "view",
      "type": "function"
    },
    {
      "constant": true,
      "inputs": [],
      "name": "symbol",
      "outputs": [
        {
          "name": "",
          "type": "string"
        }
      ],
      "payable": false,
      "stateMutability": "view",
      "type": "function"
    },
    {
      "constant": false,
      "inputs": [
        {
          "name": "spender",
          "type": "address"
        },
        {
          "name": "subtractedValue",
          "type": "uint256"
        }
      ],
      "name": "decreaseAllowance",
      "outputs": [
        {
          "name": "",
          "type": "bool"
        }
      ],
      "payable": false,
      "stateMutability": "nonpayable",
      "type": "function"
    },
    {
      "constant": false,
      "inputs": [
        {
          "name": "to",
          "type": "address"
        },
        {
          "name": "value",
          "type": "uint256"
        }
      ],
      "name": "transfer",
      "outputs": [
        {
          "name": "",
          "type": "bool"
        }
      ],
      "payable": false,
      "stateMutability": "nonpayable",
      "type": "function"
    },
    {
      "constant": true,
      "inputs": [
        {
          "name": "account",
          "type": "address"
        }
      ],
      "name": "isWhitelistAdmin",
      "outputs": [
        {
          "name": "",
          "type": "bool"
        }
      ],
      "payable": false,
      "stateMutability": "view",
      "type": "function"
    },
    {
      "constant": false,
      "inputs": [],
      "name": "renounceWhitelisted",
      "outputs": [],
      "payable": false,
      "stateMutability": "nonpayable",
      "type": "function"
    },
    {
      "constant": true,
      "inputs": [
        {
          "name": "owner",
          "type": "address"
        },
        {
          "name": "spender",
          "type": "address"
        }
      ],
      "name": "allowance",
      "outputs": [
        {
          "name": "",
          "type": "uint256"
        }
      ],
      "payable": false,
      "stateMutability": "view",
      "type": "function"
    },
    {
      "constant": true,
      "inputs": [],
      "name": "fee",
      "outputs": [
        {
          "name": "",
          "type": "uint16"
        }
      ],
      "payable": false,
      "stateMutability": "view",
      "type": "function"
    },
    {
      "constant": false,
      "inputs": [
        {
          "name": "newOwner",
          "type": "address"
        }
      ],
      "name": "transferOwnership",
      "outputs": [],
      "payable": false,
      "stateMutability": "nonpayable",
      "type": "function"
    },
    {
      "constant": true,
      "inputs": [],
      "name": "server",
      "outputs": [
        {
          "name": "",
          "type": "address"
        }
      ],
      "payable": false,
      "stateMutability": "view",
      "type": "function"
    },
    {
      "inputs": [],
      "payable": false,
      "stateMutability": "nonpayable",
      "type": "constructor"
    },
    {
      "anonymous": false,
      "inputs": [
        {
          "indexed": false,
          "name": "maker",
          "type": "address"
        },
        {
          "indexed": false,
          "name": "tradeAddress",
          "type": "address"
        }
      ],
      "name": "tradeMade",
      "type": "event"
    },
    {
      "anonymous": false,
      "inputs": [
        {
          "indexed": true,
          "name": "previousOwner",
          "type": "address"
        },
        {
          "indexed": true,
          "name": "newOwner",
          "type": "address"
        }
      ],
      "name": "OwnershipTransferred",
      "type": "event"
    },
    {
      "anonymous": false,
      "inputs": [
        {
          "indexed": true,
          "name": "account",
          "type": "address"
        }
      ],
      "name": "WhitelistedAdded",
      "type": "event"
    },
    {
      "anonymous": false,
      "inputs": [
        {
          "indexed": true,
          "name": "account",
          "type": "address"
        }
      ],
      "name": "WhitelistedRemoved",
      "type": "event"
    },
    {
      "anonymous": false,
      "inputs": [
        {
          "indexed": true,
          "name": "account",
          "type": "address"
        }
      ],
      "name": "WhitelistAdminAdded",
      "type": "event"
    },
    {
      "anonymous": false,
      "inputs": [
        {
          "indexed": true,
          "name": "account",
          "type": "address"
        }
      ],
      "name": "WhitelistAdminRemoved",
      "type": "event"
    },
    {
      "anonymous": false,
      "inputs": [
        {
          "indexed": true,
          "name": "from",
          "type": "address"
        },
        {
          "indexed": true,
          "name": "to",
          "type": "address"
        },
        {
          "indexed": false,
          "name": "value",
          "type": "uint256"
        }
      ],
      "name": "Transfer",
      "type": "event"
    },
    {
      "anonymous": false,
      "inputs": [
        {
          "indexed": true,
          "name": "owner",
          "type": "address"
        },
        {
          "indexed": true,
          "name": "spender",
          "type": "address"
        },
        {
          "indexed": false,
          "name": "value",
          "type": "uint256"
        }
      ],
      "name": "Approval",
      "type": "event"
    },
    {
      "constant": false,
      "inputs": [
        {
          "name": "_server",
          "type": "address"
        }
      ],
      "name": "setServer",
      "outputs": [],
      "payable": false,
      "stateMutability": "nonpayable",
      "type": "function"
    },
    {
      "constant": true,
      "inputs": [],
      "name": "getServer",
      "outputs": [
        {
          "name": "",
          "type": "address"
        }
      ],
      "payable": false,
      "stateMutability": "view",
      "type": "function"
    },
    {
      "constant": true,
      "inputs": [],
      "name": "getDecimals",
      "outputs": [
        {
          "name": "",
          "type": "uint8"
        }
      ],
      "payable": false,
      "stateMutability": "pure",
      "type": "function"
    },
    {
      "constant": false,
      "inputs": [
        {
          "name": "cap",
          "type": "uint256"
        },
        {
          "name": "dataNum",
          "type": "uint256"
        },
        {
          "name": "verifierNum",
          "type": "uint256"
        }
      ],
      "name": "newTrade",
      "outputs": [
        {
          "name": "",
          "type": "bool"
        }
      ],
      "payable": false,
      "stateMutability": "nonpayable",
      "type": "function"
    }
  ],
  "bytecode": "0x60806040523480156200001157600080fd5b506040518060400160405280601081526020017f4e6172614d616c73616d69546f6b656e000000000000000000000000000000008152506040518060400160405280600381526020017f4e4d5400000000000000000000000000000000000000000000000000000000008152506012826003908051906020019062000098929190620005b5565b508160049080519060200190620000b1929190620005b5565b5080600560006101000a81548160ff021916908360ff160217905550505050620000e133620001d660201b60201c565b33600860006101000a81548173ffffffffffffffffffffffffffffffffffffffff021916908373ffffffffffffffffffffffffffffffffffffffff160217905550600860009054906101000a900473ffffffffffffffffffffffffffffffffffffffff1673ffffffffffffffffffffffffffffffffffffffff16600073ffffffffffffffffffffffffffffffffffffffff167f8be0079c531659141344cd1fd0a4f28419497f9722a3daafe3b4186f6b6457e060405160405180910390a3620001bf33601260ff16600a0a6402540be400026200023760201b60201c565b620001d0336200039860201b60201c565b62000664565b620001f1816006620003c760201b62001f081790919060201c565b8073ffffffffffffffffffffffffffffffffffffffff167f22380c05984257a1cb900161c713dd71d39e74820f1aea43bd3f1bdd2096129960405160405180910390a250565b600073ffffffffffffffffffffffffffffffffffffffff168273ffffffffffffffffffffffffffffffffffffffff1614156200027257600080fd5b6200028e816002546200047d60201b62001c3c1790919060201c565b600281905550620002ec816000808573ffffffffffffffffffffffffffffffffffffffff1673ffffffffffffffffffffffffffffffffffffffff168152602001908152602001600020546200047d60201b62001c3c1790919060201c565b6000808473ffffffffffffffffffffffffffffffffffffffff1673ffffffffffffffffffffffffffffffffffffffff168152602001908152602001600020819055508173ffffffffffffffffffffffffffffffffffffffff16600073ffffffffffffffffffffffffffffffffffffffff167fddf252ad1be2c89b69c2b068fc378daa952ba7f163c4a11628f55a4df523b3ef836040518082815260200191505060405180910390a35050565b620003a9336200049d60201b60201c565b620003b357600080fd5b620003c481620004c160201b60201c565b50565b600073ffffffffffffffffffffffffffffffffffffffff168173ffffffffffffffffffffffffffffffffffffffff1614156200040257600080fd5b6200041482826200052260201b60201c565b156200041f57600080fd5b60018260000160008373ffffffffffffffffffffffffffffffffffffffff1673ffffffffffffffffffffffffffffffffffffffff16815260200190815260200160002060006101000a81548160ff0219169083151502179055505050565b6000808284019050838110156200049357600080fd5b8091505092915050565b6000620004ba8260066200052260201b62001c5c1790919060201c565b9050919050565b620004dc816007620003c760201b62001f081790919060201c565b8073ffffffffffffffffffffffffffffffffffffffff167fee1504a83b6d4a361f4c1dc78ab59bfa30d6a3b6612c403e86bb01ef2984295f60405160405180910390a250565b60008073ffffffffffffffffffffffffffffffffffffffff168273ffffffffffffffffffffffffffffffffffffffff1614156200055e57600080fd5b8260000160008373ffffffffffffffffffffffffffffffffffffffff1673ffffffffffffffffffffffffffffffffffffffff16815260200190815260200160002060009054906101000a900460ff16905092915050565b828054600181600116156101000203166002900490600052602060002090601f016020900481019282601f10620005f857805160ff191683800117855562000629565b8280016001018555821562000629579182015b82811115620006285782518255916020019190600101906200060b565b5b5090506200063891906200063c565b5090565b6200066191905b808211156200065d57600081600090555060010162000643565b5090565b90565b6147de80620006746000396000f3fe60806040523480156200001157600080fd5b5060043610620002085760003560e01c80637362d9c8116200011d578063d6cd947311620000b1578063f19a0b54116200007b578063f19a0b54146200096d578063f2fde38b14620009b4578063f9fecc9a14620009fb578063fd922a421462000a585762000208565b8063d6cd94731462000898578063dd62ed3e14620008a4578063ddca3f43146200091f578063f0141d8414620009475762000208565b806395d89b4111620000f357806395d89b4114620006df578063a457c2d71462000767578063a9059cbb14620007d0578063bb5f747b14620008395762000208565b80637362d9c814620006285780638da5cb5b146200066f5780638f32d59b14620006bb5762000208565b80632e0f262511620001a15780633af32abf116200016b5780633af32abf14620005565780634c5a628c14620005b557806370a0823114620005c1578063715018a6146200061c5762000208565b80632e0f262514620004815780632ff2e9dc14620004a7578063313ce56714620004c75780633950935114620004ed5762000208565b806310154bad11620001e357806310154bad146200034a57806318160ddd146200039157806323b872dd14620003b1578063291d9549146200043a5762000208565b806306fdde03146200020d578063089587cd1462000295578063095ea7b314620002e1575b600080fd5b6200021762000aa4565b6040518080602001828103825283818151815260200191508051906020019080838360005b83811015620002595780820151818401526020810190506200023c565b50505050905090810190601f168015620002875780820380516001836020036101000a031916815260200191505b509250505060405180910390f35b6200029f62000b4a565b604051808273ffffffffffffffffffffffffffffffffffffffff1673ffffffffffffffffffffffffffffffffffffffff16815260200191505060405180910390f35b6200033060048036036040811015620002f957600080fd5b81019080803573ffffffffffffffffffffffffffffffffffffffff1690602001909291908035906020019092919050505062000b74565b604051808215151515815260200191505060405180910390f35b6200038f600480360360208110156200036257600080fd5b81019080803573ffffffffffffffffffffffffffffffffffffffff16906020019092919050505062000ca0565b005b6200039b62000cc3565b6040518082815260200191505060405180910390f35b6200042060048036036060811015620003c957600080fd5b81019080803573ffffffffffffffffffffffffffffffffffffffff169060200190929190803573ffffffffffffffffffffffffffffffffffffffff1690602001909291908035906020019092919050505062000ccd565b604051808215151515815260200191505060405180910390f35b6200047f600480360360208110156200045257600080fd5b81019080803573ffffffffffffffffffffffffffffffffffffffff16906020019092919050505062000ed9565b005b6200048b62000efc565b604051808260ff1660ff16815260200191505060405180910390f35b620004b162000f01565b6040518082815260200191505060405180910390f35b620004d162000f13565b604051808260ff1660ff16815260200191505060405180910390f35b6200053c600480360360408110156200050557600080fd5b81019080803573ffffffffffffffffffffffffffffffffffffffff1690602001909291908035906020019092919050505062000f2a565b604051808215151515815260200191505060405180910390f35b6200059b600480360360208110156200056e57600080fd5b81019080803573ffffffffffffffffffffffffffffffffffffffff16906020019092919050505062001162565b604051808215151515815260200191505060405180910390f35b620005bf62001181565b005b6200060660048036036020811015620005d957600080fd5b81019080803573ffffffffffffffffffffffffffffffffffffffff1690602001909291905050506200118e565b6040518082815260200191505060405180910390f35b62000626620011d6565b005b6200066d600480360360208110156200064057600080fd5b81019080803573ffffffffffffffffffffffffffffffffffffffff169060200190929190505050620012ab565b005b62000679620012ce565b604051808273ffffffffffffffffffffffffffffffffffffffff1673ffffffffffffffffffffffffffffffffffffffff16815260200191505060405180910390f35b620006c5620012f8565b604051808215151515815260200191505060405180910390f35b620006e962001350565b6040518080602001828103825283818151815260200191508051906020019080838360005b838110156200072b5780820151818401526020810190506200070e565b50505050905090810190601f168015620007595780820380516001836020036101000a031916815260200191505b509250505060405180910390f35b620007b6600480360360408110156200077f57600080fd5b81019080803573ffffffffffffffffffffffffffffffffffffffff16906020019092919080359060200190929190505050620013f6565b604051808215151515815260200191505060405180910390f35b6200081f60048036036040811015620007e857600080fd5b81019080803573ffffffffffffffffffffffffffffffffffffffff169060200190929190803590602001909291905050506200162e565b604051808215151515815260200191505060405180910390f35b6200087e600480360360208110156200085157600080fd5b81019080803573ffffffffffffffffffffffffffffffffffffffff16906020019092919050505062001647565b604051808215151515815260200191505060405180910390f35b620008a262001666565b005b6200090960048036036040811015620008bc57600080fd5b81019080803573ffffffffffffffffffffffffffffffffffffffff169060200190929190803573ffffffffffffffffffffffffffffffffffffffff16906020019092919050505062001673565b6040518082815260200191505060405180910390f35b62000929620016fa565b604051808261ffff1661ffff16815260200191505060405180910390f35b6200095162001700565b604051808260ff1660ff16815260200191505060405180910390f35b620009b2600480360360208110156200098557600080fd5b81019080803573ffffffffffffffffffffffffffffffffffffffff16906020019092919050505062001709565b005b620009f960048036036020811015620009cc57600080fd5b81019080803573ffffffffffffffffffffffffffffffffffffffff16906020019092919050505062001762565b005b62000a3e6004803603606081101562000a1357600080fd5b8101908080359060200190929190803590602001909291908035906020019092919050505062001784565b604051808215151515815260200191505060405180910390f35b62000a626200196e565b604051808273ffffffffffffffffffffffffffffffffffffffff1673ffffffffffffffffffffffffffffffffffffffff16815260200191505060405180910390f35b606060038054600181600116156101000203166002900480601f01602080910402602001604051908101604052809291908181526020018280546001816001161561010002031660029004801562000b405780601f1062000b145761010080835404028352916020019162000b40565b820191906000526020600020905b81548152906001019060200180831162000b2257829003601f168201915b5050505050905090565b6000600960009054906101000a900473ffffffffffffffffffffffffffffffffffffffff16905090565b60008073ffffffffffffffffffffffffffffffffffffffff168373ffffffffffffffffffffffffffffffffffffffff16141562000bb057600080fd5b81600160003373ffffffffffffffffffffffffffffffffffffffff1673ffffffffffffffffffffffffffffffffffffffff16815260200190815260200160002060008573ffffffffffffffffffffffffffffffffffffffff1673ffffffffffffffffffffffffffffffffffffffff168152602001908152602001600020819055508273ffffffffffffffffffffffffffffffffffffffff163373ffffffffffffffffffffffffffffffffffffffff167f8c5be1e5ebec7d5bd14f71427d1e84f3dd0314c0f7b2291e5b200ac8c7c3b925846040518082815260200191505060405180910390a36001905092915050565b62000cab3362001647565b62000cb557600080fd5b62000cc08162001994565b50565b6000600254905090565b600062000d6082600160008773ffffffffffffffffffffffffffffffffffffffff1673ffffffffffffffffffffffffffffffffffffffff16815260200190815260200160002060003373ffffffffffffffffffffffffffffffffffffffff1673ffffffffffffffffffffffffffffffffffffffff16815260200190815260200160002054620019f090919063ffffffff16565b600160008673ffffffffffffffffffffffffffffffffffffffff1673ffffffffffffffffffffffffffffffffffffffff16815260200190815260200160002060003373ffffffffffffffffffffffffffffffffffffffff1673ffffffffffffffffffffffffffffffffffffffff1681526020019081526020016000208190555062000ded84848462001a11565b3373ffffffffffffffffffffffffffffffffffffffff168473ffffffffffffffffffffffffffffffffffffffff167f8c5be1e5ebec7d5bd14f71427d1e84f3dd0314c0f7b2291e5b200ac8c7c3b925600160008873ffffffffffffffffffffffffffffffffffffffff1673ffffffffffffffffffffffffffffffffffffffff16815260200190815260200160002060003373ffffffffffffffffffffffffffffffffffffffff1673ffffffffffffffffffffffffffffffffffffffff168152602001908152602001600020546040518082815260200191505060405180910390a3600190509392505050565b62000ee43362001647565b62000eee57600080fd5b62000ef98162001be0565b50565b601281565b601260ff16600a0a6402540be4000281565b6000600560009054906101000a900460ff16905090565b60008073ffffffffffffffffffffffffffffffffffffffff168373ffffffffffffffffffffffffffffffffffffffff16141562000f6657600080fd5b62000ff782600160003373ffffffffffffffffffffffffffffffffffffffff1673ffffffffffffffffffffffffffffffffffffffff16815260200190815260200160002060008673ffffffffffffffffffffffffffffffffffffffff1673ffffffffffffffffffffffffffffffffffffffff1681526020019081526020016000205462001c3c90919063ffffffff16565b600160003373ffffffffffffffffffffffffffffffffffffffff1673ffffffffffffffffffffffffffffffffffffffff16815260200190815260200160002060008573ffffffffffffffffffffffffffffffffffffffff1673ffffffffffffffffffffffffffffffffffffffff168152602001908152602001600020819055508273ffffffffffffffffffffffffffffffffffffffff163373ffffffffffffffffffffffffffffffffffffffff167f8c5be1e5ebec7d5bd14f71427d1e84f3dd0314c0f7b2291e5b200ac8c7c3b925600160003373ffffffffffffffffffffffffffffffffffffffff1673ffffffffffffffffffffffffffffffffffffffff16815260200190815260200160002060008773ffffffffffffffffffffffffffffffffffffffff1673ffffffffffffffffffffffffffffffffffffffff168152602001908152602001600020546040518082815260200191505060405180910390a36001905092915050565b60006200117a82600762001c5c90919063ffffffff16565b9050919050565b6200118c3362001cef565b565b60008060008373ffffffffffffffffffffffffffffffffffffffff1673ffffffffffffffffffffffffffffffffffffffff168152602001908152602001600020549050919050565b620011e0620012f8565b620011ea57600080fd5b600073ffffffffffffffffffffffffffffffffffffffff16600860009054906101000a900473ffffffffffffffffffffffffffffffffffffffff1673ffffffffffffffffffffffffffffffffffffffff167f8be0079c531659141344cd1fd0a4f28419497f9722a3daafe3b4186f6b6457e060405160405180910390a36000600860006101000a81548173ffffffffffffffffffffffffffffffffffffffff021916908373ffffffffffffffffffffffffffffffffffffffff160217905550565b620012b63362001647565b620012c057600080fd5b620012cb8162001d4b565b50565b6000600860009054906101000a900473ffffffffffffffffffffffffffffffffffffffff16905090565b6000600860009054906101000a900473ffffffffffffffffffffffffffffffffffffffff1673ffffffffffffffffffffffffffffffffffffffff163373ffffffffffffffffffffffffffffffffffffffff1614905090565b606060048054600181600116156101000203166002900480601f016020809104026020016040519081016040528092919081815260200182805460018160011615610100020316600290048015620013ec5780601f10620013c057610100808354040283529160200191620013ec565b820191906000526020600020905b815481529060010190602001808311620013ce57829003601f168201915b5050505050905090565b60008073ffffffffffffffffffffffffffffffffffffffff168373ffffffffffffffffffffffffffffffffffffffff1614156200143257600080fd5b620014c382600160003373ffffffffffffffffffffffffffffffffffffffff1673ffffffffffffffffffffffffffffffffffffffff16815260200190815260200160002060008673ffffffffffffffffffffffffffffffffffffffff1673ffffffffffffffffffffffffffffffffffffffff16815260200190815260200160002054620019f090919063ffffffff16565b600160003373ffffffffffffffffffffffffffffffffffffffff1673ffffffffffffffffffffffffffffffffffffffff16815260200190815260200160002060008573ffffffffffffffffffffffffffffffffffffffff1673ffffffffffffffffffffffffffffffffffffffff168152602001908152602001600020819055508273ffffffffffffffffffffffffffffffffffffffff163373ffffffffffffffffffffffffffffffffffffffff167f8c5be1e5ebec7d5bd14f71427d1e84f3dd0314c0f7b2291e5b200ac8c7c3b925600160003373ffffffffffffffffffffffffffffffffffffffff1673ffffffffffffffffffffffffffffffffffffffff16815260200190815260200160002060008773ffffffffffffffffffffffffffffffffffffffff1673ffffffffffffffffffffffffffffffffffffffff168152602001908152602001600020546040518082815260200191505060405180910390a36001905092915050565b60006200163d33848462001a11565b6001905092915050565b60006200165f82600662001c5c90919063ffffffff16565b9050919050565b620016713362001be0565b565b6000600160008473ffffffffffffffffffffffffffffffffffffffff1673ffffffffffffffffffffffffffffffffffffffff16815260200190815260200160002060008373ffffffffffffffffffffffffffffffffffffffff1673ffffffffffffffffffffffffffffffffffffffff16815260200190815260200160002054905092915050565b6103e881565b60006012905090565b620017143362001162565b6200171e57600080fd5b80600960006101000a81548173ffffffffffffffffffffffffffffffffffffffff021916908373ffffffffffffffffffffffffffffffffffffffff16021790555050565b6200176c620012f8565b6200177657600080fd5b620017818162001da7565b50565b60008362001792336200118e565b10156200179e57600080fd5b6000620017d1612710620017c26103e861ffff168862001ea290919063ffffffff16565b62001ee090919063ffffffff16565b90506000818603905060003033838888604051620017ef9062002067565b808673ffffffffffffffffffffffffffffffffffffffff1673ffffffffffffffffffffffffffffffffffffffff1681526020018573ffffffffffffffffffffffffffffffffffffffff1673ffffffffffffffffffffffffffffffffffffffff16815260200184815260200183815260200182815260200195505050505050604051809103906000f0801580156200188a573d6000803e3d6000fd5b509050620018bb600960009054906101000a900473ffffffffffffffffffffffffffffffffffffffff16846200162e565b50620018c881836200162e565b507f8ae111c34d2c04a708c524ba9a2a918eb96bb88c771f7dd204858ee30651cddb3382604051808373ffffffffffffffffffffffffffffffffffffffff1673ffffffffffffffffffffffffffffffffffffffff1681526020018273ffffffffffffffffffffffffffffffffffffffff1673ffffffffffffffffffffffffffffffffffffffff1681526020019250505060405180910390a1600193505050509392505050565b600960009054906101000a900473ffffffffffffffffffffffffffffffffffffffff1681565b620019aa81600762001f0890919063ffffffff16565b8073ffffffffffffffffffffffffffffffffffffffff167fee1504a83b6d4a361f4c1dc78ab59bfa30d6a3b6612c403e86bb01ef2984295f60405160405180910390a250565b60008282111562001a0057600080fd5b600082840390508091505092915050565b600073ffffffffffffffffffffffffffffffffffffffff168273ffffffffffffffffffffffffffffffffffffffff16141562001a4c57600080fd5b62001a9f816000808673ffffffffffffffffffffffffffffffffffffffff1673ffffffffffffffffffffffffffffffffffffffff16815260200190815260200160002054620019f090919063ffffffff16565b6000808573ffffffffffffffffffffffffffffffffffffffff1673ffffffffffffffffffffffffffffffffffffffff1681526020019081526020016000208190555062001b34816000808573ffffffffffffffffffffffffffffffffffffffff1673ffffffffffffffffffffffffffffffffffffffff1681526020019081526020016000205462001c3c90919063ffffffff16565b6000808473ffffffffffffffffffffffffffffffffffffffff1673ffffffffffffffffffffffffffffffffffffffff168152602001908152602001600020819055508173ffffffffffffffffffffffffffffffffffffffff168373ffffffffffffffffffffffffffffffffffffffff167fddf252ad1be2c89b69c2b068fc378daa952ba7f163c4a11628f55a4df523b3ef836040518082815260200191505060405180910390a3505050565b62001bf681600762001fb890919063ffffffff16565b8073ffffffffffffffffffffffffffffffffffffffff167f270d9b30cf5b0793bbfd54c9d5b94aeb49462b8148399000265144a8722da6b660405160405180910390a250565b60008082840190508381101562001c5257600080fd5b8091505092915050565b60008073ffffffffffffffffffffffffffffffffffffffff168273ffffffffffffffffffffffffffffffffffffffff16141562001c9857600080fd5b8260000160008373ffffffffffffffffffffffffffffffffffffffff1673ffffffffffffffffffffffffffffffffffffffff16815260200190815260200160002060009054906101000a900460ff16905092915050565b62001d0581600662001fb890919063ffffffff16565b8073ffffffffffffffffffffffffffffffffffffffff167f0a8eb35e5ca14b3d6f28e4abf2f128dbab231a58b56e89beb5d636115001e16560405160405180910390a250565b62001d6181600662001f0890919063ffffffff16565b8073ffffffffffffffffffffffffffffffffffffffff167f22380c05984257a1cb900161c713dd71d39e74820f1aea43bd3f1bdd2096129960405160405180910390a250565b600073ffffffffffffffffffffffffffffffffffffffff168173ffffffffffffffffffffffffffffffffffffffff16141562001de257600080fd5b8073ffffffffffffffffffffffffffffffffffffffff16600860009054906101000a900473ffffffffffffffffffffffffffffffffffffffff1673ffffffffffffffffffffffffffffffffffffffff167f8be0079c531659141344cd1fd0a4f28419497f9722a3daafe3b4186f6b6457e060405160405180910390a380600860006101000a81548173ffffffffffffffffffffffffffffffffffffffff021916908373ffffffffffffffffffffffffffffffffffffffff16021790555050565b60008083141562001eb7576000905062001eda565b600082840290508284828162001ec957fe5b041462001ed557600080fd5b809150505b92915050565b600080821162001eef57600080fd5b600082848162001efb57fe5b0490508091505092915050565b600073ffffffffffffffffffffffffffffffffffffffff168173ffffffffffffffffffffffffffffffffffffffff16141562001f4357600080fd5b62001f4f828262001c5c565b1562001f5a57600080fd5b60018260000160008373ffffffffffffffffffffffffffffffffffffffff1673ffffffffffffffffffffffffffffffffffffffff16815260200190815260200160002060006101000a81548160ff0219169083151502179055505050565b600073ffffffffffffffffffffffffffffffffffffffff168173ffffffffffffffffffffffffffffffffffffffff16141562001ff357600080fd5b62001fff828262001c5c565b6200200957600080fd5b60008260000160008373ffffffffffffffffffffffffffffffffffffffff1673ffffffffffffffffffffffffffffffffffffffff16815260200190815260200160002060006101000a81548160ff0219169083151502179055505050565b61273d80620020768339019056fe6080604052612710600260146101000a81548161ffff021916908361ffff160217905550610bb8600260166101000a81548161ffff021916908361ffff160217905550611b58600260186101000a81548161ffff021916908361ffff160217905550600a60045560006005556000600a556000600b556000600c556000600d60006101000a81548160ff021916908315150217905550348015620000a257600080fd5b5060405160a0806200273d833981018060405260a0811015620000c457600080fd5b810190808051906020019092919080519060200190929190805190602001909291908051906020019092919080519060200190929190505050336000806101000a81548173ffffffffffffffffffffffffffffffffffffffff021916908373ffffffffffffffffffffffffffffffffffffffff1602179055506000809054906101000a900473ffffffffffffffffffffffffffffffffffffffff1673ffffffffffffffffffffffffffffffffffffffff16600073ffffffffffffffffffffffffffffffffffffffff167f8be0079c531659141344cd1fd0a4f28419497f9722a3daafe3b4186f6b6457e060405160405180910390a383600260006101000a81548173ffffffffffffffffffffffffffffffffffffffff021916908373ffffffffffffffffffffffffffffffffffffffff1602179055506200020b84620003e660201b60201c565b84600160006101000a81548173ffffffffffffffffffffffffffffffffffffffff021916908373ffffffffffffffffffffffffffffffffffffffff16021790555082600381905550816006819055508060058190555060006007819055506000620002f3620002b1600260169054906101000a900461ffff1661ffff16600260189054906101000a900461ffff1661ffff166200041460201b62001f581790919060201c565b620002df600260169054906101000a900461ffff1661ffff16876200043460201b620015061790919060201c565b6200047260201b62001f8e1790919060201c565b905060006200031182866200049a60201b62001fb41790919060201c565b90506200032d84836200047260201b62001f8e1790919060201c565b600881905550620003666200035184866200043460201b620015061790919060201c565b826200047260201b62001f8e1790919060201c565b600981905550620003966200038a8584620004bb60201b620020921790919060201c565b620004de60201b60201c565b620003d9620003cd620003b885876200043460201b620015061790919060201c565b83620004bb60201b620020921790919060201c565b620004de60201b60201c565b505050505050506200064e565b620003f6620004fe60201b60201c565b6200040057600080fd5b62000411816200055560201b60201c565b50565b6000808284019050838110156200042a57600080fd5b8091505092915050565b6000808314156200044957600090506200046c565b60008284029050828482816200045b57fe5b04146200046757600080fd5b809150505b92915050565b60008082116200048157600080fd5b60008284816200048d57fe5b0490508091505092915050565b600082821115620004aa57600080fd5b600082840390508091505092915050565b600080821415620004cb57600080fd5b818381620004d557fe5b06905092915050565b620004fa81600c546200041460201b62001f581790919060201c565b5050565b60008060009054906101000a900473ffffffffffffffffffffffffffffffffffffffff1673ffffffffffffffffffffffffffffffffffffffff163373ffffffffffffffffffffffffffffffffffffffff1614905090565b600073ffffffffffffffffffffffffffffffffffffffff168173ffffffffffffffffffffffffffffffffffffffff1614156200059057600080fd5b8073ffffffffffffffffffffffffffffffffffffffff166000809054906101000a900473ffffffffffffffffffffffffffffffffffffffff1673ffffffffffffffffffffffffffffffffffffffff167f8be0079c531659141344cd1fd0a4f28419497f9722a3daafe3b4186f6b6457e060405160405180910390a3806000806101000a81548173ffffffffffffffffffffffffffffffffffffffff021916908373ffffffffffffffffffffffffffffffffffffffff16021790555050565b6120df806200065e6000396000f3fe608060405234801561001057600080fd5b50600436106101165760003560e01c8063ae55c888116100a2578063dc49be6211610071578063dc49be6214610636578063f2fde38b14610654578063f3e9371f14610698578063f7407b4a146106b6578063fc0c546a146106d457610116565b8063ae55c888146103d4578063c139e64c14610549578063c257e883146105fa578063c650e7381461061857610116565b806389af8ae9116100e957806389af8ae9146101cb5780638da5cb5b146102d15780638f32d59b1461031b5780639679dd7d1461033d57806396f80c5c1461035b57610116565b806316dd1f6914610118578063355274ea14610169578063505678ac14610187578063715018a6146101c1575b005b61012061071e565b604051808373ffffffffffffffffffffffffffffffffffffffff1673ffffffffffffffffffffffffffffffffffffffff1681526020018281526020019250505060405180910390f35b610171610754565b6040518082815260200191505060405180910390f35b61018f61075e565b604051808681526020018581526020018481526020018381526020018281526020019550505050505060405180910390f35b6101c9610786565b005b6102cf600480360360a08110156101e157600080fd5b81019080803590602001906401000000008111156101fe57600080fd5b82018360208201111561021057600080fd5b8035906020019184600183028401116401000000008311171561023257600080fd5b909192939192939080359060200190929190803561ffff169060200190929190803573ffffffffffffffffffffffffffffffffffffffff1690602001909291908035906020019064010000000081111561028b57600080fd5b82018360208201111561029d57600080fd5b803590602001918460018302840111640100000000831117156102bf57600080fd5b9091929391929390505050610856565b005b6102d9610ac4565b604051808273ffffffffffffffffffffffffffffffffffffffff1673ffffffffffffffffffffffffffffffffffffffff16815260200191505060405180910390f35b610323610aed565b604051808215151515815260200191505060405180910390f35b610345610b44565b6040518082815260200191505060405180910390f35b6103d26004803603602081101561037157600080fd5b810190808035906020019064010000000081111561038e57600080fd5b8201836020820111156103a057600080fd5b803590602001918460018302840111640100000000831117156103c257600080fd5b9091929391929390505050610c29565b005b61048d600480360360208110156103ea57600080fd5b810190808035906020019064010000000081111561040757600080fd5b82018360208201111561041957600080fd5b8035906020019184600183028401116401000000008311171561043b57600080fd5b91908080601f016020809104026020016040519081016040528093929190818152602001838380828437600081840152601f19601f820116905080830192505050505050509192919290505050610f3d565b60405180806020018581526020018481526020018373ffffffffffffffffffffffffffffffffffffffff1673ffffffffffffffffffffffffffffffffffffffff168152602001828103825286818151815260200191508051906020019080838360005b8381101561050b5780820151818401526020810190506104f0565b50505050905090810190601f1680156105385780820380516001836020036101000a031916815260200191505b509550505050505060405180910390f35b6105f86004803603608081101561055f57600080fd5b810190808035906020019064010000000081111561057c57600080fd5b82018360208201111561058e57600080fd5b803590602001918460018302840111640100000000831117156105b057600080fd5b909192939192939080359060200190929190803561ffff169060200190929190803573ffffffffffffffffffffffffffffffffffffffff169060200190929190505050611275565b005b610602611422565b6040518082815260200191505060405180910390f35b61062061142c565b6040518082815260200191505060405180910390f35b61063e6114a1565b6040518082815260200191505060405180910390f35b6106966004803603602081101561066a57600080fd5b81019080803573ffffffffffffffffffffffffffffffffffffffff1690602001909291905050506114ab565b005b6106a06114c8565b6040518082815260200191505060405180910390f35b6106be6114d2565b6040518082815260200191505060405180910390f35b6106dc6114dc565b604051808273ffffffffffffffffffffffffffffffffffffffff1673ffffffffffffffffffffffffffffffffffffffff16815260200191505060405180910390f35b600080600260009054906101000a900473ffffffffffffffffffffffffffffffffffffffff1661074c610b44565b915091509091565b6000600354905090565b6000806000806000600354600854600654600754600c54945094509450945094509091929394565b61078e610aed565b61079757600080fd5b600073ffffffffffffffffffffffffffffffffffffffff166000809054906101000a900473ffffffffffffffffffffffffffffffffffffffff1673ffffffffffffffffffffffffffffffffffffffff167f8be0079c531659141344cd1fd0a4f28419497f9722a3daafe3b4186f6b6457e060405160405180910390a360008060006101000a81548173ffffffffffffffffffffffffffffffffffffffff021916908373ffffffffffffffffffffffffffffffffffffffff160217905550565b61085e6114dc565b73ffffffffffffffffffffffffffffffffffffffff16633af32abf336040518263ffffffff1660e01b8152600401808273ffffffffffffffffffffffffffffffffffffffff1673ffffffffffffffffffffffffffffffffffffffff16815260200191505060206040518083038186803b1580156108da57600080fd5b505afa1580156108ee573d6000803e3d6000fd5b505050506040513d602081101561090457600080fd5b810190808051906020019092919050505061091e57600080fd5b60006109358660085461150690919063ffffffff16565b905061098683838080601f016020809104026020016040519081016040528093929190818152602001838380828437600081840152601f19601f820116905080830192505050505050508787611540565b6109d588888080601f016020809104026020016040519081016040528093929190818152602001838380828437600081840152601f19601f8201169050808301925050505050505085836115b3565b610a6a88888080601f016020809104026020016040519081016040528093929190818152602001838380828437600081840152601f19601f8201169050808301925050505050505087878787878080601f016020809104026020016040519081016040528093929190818152602001838380828437600081840152601f19601f82011690508083019250505050505050611626565b610aba88888080601f016020809104026020016040519081016040528093929190818152602001838380828437600081840152601f19601f820116905080830192505050505050508686846118f5565b5050505050505050565b60008060009054906101000a900473ffffffffffffffffffffffffffffffffffffffff16905090565b60008060009054906101000a900473ffffffffffffffffffffffffffffffffffffffff1673ffffffffffffffffffffffffffffffffffffffff163373ffffffffffffffffffffffffffffffffffffffff1614905090565b6000600c54600160009054906101000a900473ffffffffffffffffffffffffffffffffffffffff1673ffffffffffffffffffffffffffffffffffffffff166370a08231306040518263ffffffff1660e01b8152600401808273ffffffffffffffffffffffffffffffffffffffff1673ffffffffffffffffffffffffffffffffffffffff16815260200191505060206040518083038186803b158015610be857600080fd5b505afa158015610bfc573d6000803e3d6000fd5b505050506040513d6020811015610c1257600080fd5b810190808051906020019092919050505003905090565b610c316114dc565b73ffffffffffffffffffffffffffffffffffffffff16633af32abf336040518263ffffffff1660e01b8152600401808273ffffffffffffffffffffffffffffffffffffffff1673ffffffffffffffffffffffffffffffffffffffff16815260200191505060206040518083038186803b158015610cad57600080fd5b505afa158015610cc1573d6000803e3d6000fd5b505050506040513d6020811015610cd757600080fd5b8101908080519060200190929190505050610cf157600080fd5b610db482828080601f016020809104026020016040519081016040528093929190818152602001838380828437600081840152601f19601f82011690508083019250505050505050600e8484604051808383808284378083019250505092505050908152602001604051809103902060000160009054906101000a900473ffffffffffffffffffffffffffffffffffffffff16600e8585604051808383808284378083019250505092505050908152602001604051809103902060010154611a74565b610e7782828080601f016020809104026020016040519081016040528093929190818152602001838380828437600081840152601f19601f82011690508083019250505050505050600e8484604051808383808284378083019250505092505050908152602001604051809103902060000160009054906101000a900473ffffffffffffffffffffffffffffffffffffffff16600e8585604051808383808284378083019250505092505050908152602001604051809103902060010154611c32565b600e8282604051808383808284378083019250505092505050908152602001604051809103902060000160009054906101000a900473ffffffffffffffffffffffffffffffffffffffff1673ffffffffffffffffffffffffffffffffffffffff167f24a756d1a2c8f2c24ad07b6b6c6a46090bce16d2523224ca3aae963753b3622c600e84846040518083838082843780830192505050925050509081526020016040518091039020600101546040518082815260200191505060405180910390a25050565b60606000806000610f4c610aed565b610f5557600080fd5b6000600f866040518082805190602001908083835b60208310610f8d5780518252602082019150602081019050602083039250610f6a565b6001836020036101000a038019825116818451168082178552505050505050905001915050908152602001604051809103902060000180546001816001161561010002031660029004905011610fe257600080fd5b600f856040518082805190602001908083835b602083106110185780518252602082019150602081019050602083039250610ff5565b6001836020036101000a0380198251168184511680821785525050505050509050019150509081526020016040518091039020600001600f866040518082805190602001908083835b602083106110845780518252602082019150602081019050602083039250611061565b6001836020036101000a038019825116818451168082178552505050505050905001915050908152602001604051809103902060010154600f876040518082805190602001908083835b602083106110f157805182526020820191506020810190506020830392506110ce565b6001836020036101000a038019825116818451168082178552505050505050905001915050908152602001604051809103902060020160149054906101000a900461ffff16600f886040518082805190602001908083835b6020831061116c5780518252602082019150602081019050602083039250611149565b6001836020036101000a038019825116818451168082178552505050505050905001915050908152602001604051809103902060020160009054906101000a900473ffffffffffffffffffffffffffffffffffffffff16838054600181600116156101000203166002900480601f0160208091040260200160405190810160405280929190818152602001828054600181600116156101000203166002900480156112585780601f1061122d57610100808354040283529160200191611258565b820191906000526020600020905b81548152906001019060200180831161123b57829003601f168201915b505050505093508161ffff16915093509350935093509193509193565b61127d6114dc565b73ffffffffffffffffffffffffffffffffffffffff16633af32abf336040518263ffffffff1660e01b8152600401808273ffffffffffffffffffffffffffffffffffffffff1673ffffffffffffffffffffffffffffffffffffffff16815260200191505060206040518083038186803b1580156112f957600080fd5b505afa15801561130d573d6000803e3d6000fd5b505050506040513d602081101561132357600080fd5b810190808051906020019092919050505061133d57600080fd5b60006113548460095461150690919063ffffffff16565b9050600260149054906101000a900461ffff1661ffff168361ffff16111561137b57600080fd5b6113ca86868080601f016020809104026020016040519081016040528093929190818152602001838380828437600081840152601f19601f8201169050808301925050505050505083836115b3565b61141a86868080601f016020809104026020016040519081016040528093929190818152602001838380828437600081840152601f19601f820116905080830192505050505050508484846118f5565b505050505050565b6000600854905090565b6000611436610aed565b61143f57600080fd5b600260009054906101000a900473ffffffffffffffffffffffffffffffffffffffff1673ffffffffffffffffffffffffffffffffffffffff163373ffffffffffffffffffffffffffffffffffffffff161461149957600080fd5b600c54905090565b6000600654905090565b6114b3610aed565b6114bc57600080fd5b6114c581611e60565b50565b6000600a54905090565b6000600754905090565b6000600160009054906101000a900473ffffffffffffffffffffffffffffffffffffffff16905090565b600080831415611519576000905061153a565b600082840290508284828161152a57fe5b041461153557600080fd5b809150505b92915050565b600260149054906101000a900461ffff1661ffff168161ffff16111561156557600080fd5b600083511161157357600080fd5b600082141561158157600080fd5b6115896114a1565b6115a3836115956114d2565b611f5890919063ffffffff16565b11156115ae57600080fd5b505050565b600073ffffffffffffffffffffffffffffffffffffffff168273ffffffffffffffffffffffffffffffffffffffff1614156115ed57600080fd5b60008351116115fb57600080fd5b80611604610b44565b101561160f57600080fd5b611617611f77565b1561162157600080fd5b505050565b83600f866040518082805190602001908083835b6020831061165d578051825260208201915060208101905060208303925061163a565b6001836020036101000a03801982511681845116808217855250505050505090500191505090815260200160405180910390206001018190555082600f866040518082805190602001908083835b602083106116ce57805182526020820191506020810190506020830392506116ab565b6001836020036101000a038019825116818451168082178552505050505050905001915050908152602001604051809103902060020160146101000a81548161ffff021916908361ffff16021790555081600f866040518082805190602001908083835b602083106117555780518252602082019150602081019050602083039250611732565b6001836020036101000a038019825116818451168082178552505050505050905001915050908152602001604051809103902060020160006101000a81548173ffffffffffffffffffffffffffffffffffffffff021916908373ffffffffffffffffffffffffffffffffffffffff16021790555080600f866040518082805190602001908083835b6020831061180057805182526020820191506020810190506020830392506117dd565b6001836020036101000a03801982511681845116808217855250505050505090500191505090815260200160405180910390206000019080519060200190611849929190611fed565b5061185f84600754611f5890919063ffffffff16565b6007819055507ff3ed3d6eeb73afbb562f79fcf662eaaa3e17ee90a0be461d0970ea4e9b4ac8788461188f6114d2565b6118976114a1565b85604051808581526020018481526020018381526020018273ffffffffffffffffffffffffffffffffffffffff1673ffffffffffffffffffffffffffffffffffffffff16815260200194505050505060405180910390a15050505050565b6000611934600260149054906101000a900461ffff1661ffff166119268661ffff168561150690919063ffffffff16565b611f8e90919063ffffffff16565b905082600e866040518082805190602001908083835b6020831061196d578051825260208201915060208101905060208303925061194a565b6001836020036101000a038019825116818451168082178552505050505050905001915050908152602001604051809103902060000160006101000a81548173ffffffffffffffffffffffffffffffffffffffff021916908373ffffffffffffffffffffffffffffffffffffffff16021790555080600e866040518082805190602001908083835b60208310611a1857805182526020820191506020810190506020830392506119f5565b6001836020036101000a038019825116818451168082178552505050505050905001915050908152602001604051809103902060010181905550611a6d611a688284611fb490919063ffffffff16565b611fd4565b5050505050565b600073ffffffffffffffffffffffffffffffffffffffff168273ffffffffffffffffffffffffffffffffffffffff161415611aae57600080fd5b6000811415611abc57600080fd5b6000835111611aca57600080fd5b600115156010846040518082805190602001908083835b60208310611b045780518252602082019150602081019050602083039250611ae1565b6001836020036101000a038019825116818451168082178552505050505050905001915050908152602001604051809103902060010160009054906101000a900460ff1615151415611b5557600080fd5b8173ffffffffffffffffffffffffffffffffffffffff16600e846040518082805190602001908083835b60208310611ba25780518252602082019150602081019050602083039250611b7f565b6001836020036101000a038019825116818451168082178552505050505050905001915050908152602001604051809103902060000160009054906101000a900473ffffffffffffffffffffffffffffffffffffffff1673ffffffffffffffffffffffffffffffffffffffff1614611c1957600080fd5b80611c22610b44565b1015611c2d57600080fd5b505050565b806010846040518082805190602001908083835b60208310611c695780518252602082019150602081019050602083039250611c46565b6001836020036101000a03801982511681845116808217855250505050505090500191505090815260200160405180910390206000018190555060016010846040518082805190602001908083835b60208310611cdb5780518252602082019150602081019050602083039250611cb8565b6001836020036101000a038019825116818451168082178552505050505050905001915050908152602001604051809103902060010160006101000a81548160ff021916908315150217905550600160009054906101000a900473ffffffffffffffffffffffffffffffffffffffff1673ffffffffffffffffffffffffffffffffffffffff1663a9059cbb83836040518363ffffffff1660e01b8152600401808373ffffffffffffffffffffffffffffffffffffffff1673ffffffffffffffffffffffffffffffffffffffff16815260200182815260200192505050602060405180830381600087803b158015611dd157600080fd5b505af1158015611de5573d6000803e3d6000fd5b505050506040513d6020811015611dfb57600080fd5b8101908080519060200190929190505050508173ffffffffffffffffffffffffffffffffffffffff167f24a756d1a2c8f2c24ad07b6b6c6a46090bce16d2523224ca3aae963753b3622c826040518082815260200191505060405180910390a2505050565b600073ffffffffffffffffffffffffffffffffffffffff168173ffffffffffffffffffffffffffffffffffffffff161415611e9a57600080fd5b8073ffffffffffffffffffffffffffffffffffffffff166000809054906101000a900473ffffffffffffffffffffffffffffffffffffffff1673ffffffffffffffffffffffffffffffffffffffff167f8be0079c531659141344cd1fd0a4f28419497f9722a3daafe3b4186f6b6457e060405160405180910390a3806000806101000a81548173ffffffffffffffffffffffffffffffffffffffff021916908373ffffffffffffffffffffffffffffffffffffffff16021790555050565b600080828401905083811015611f6d57600080fd5b8091505092915050565b6000600d60009054906101000a900460ff16905090565b6000808211611f9c57600080fd5b6000828481611fa757fe5b0490508091505092915050565b600082821115611fc357600080fd5b600082840390508091505092915050565b611fe981600c54611f5890919063ffffffff16565b5050565b828054600181600116156101000203166002900490600052602060002090601f016020900481019282601f1061202e57805160ff191683800117855561205c565b8280016001018555821561205c579182015b8281111561205b578251825591602001919060010190612040565b5b509050612069919061206d565b5090565b61208f91905b8082111561208b576000816000905550600101612073565b5090565b90565b6000808214156120a157600080fd5b8183816120aa57fe5b0690509291505056fea165627a7a723058200d8697219c75e2c9505fd3550ad3ca736f5f5316459e224e0323da8d402c7d3c0029a165627a7a7230582014cc6648b07f272acb4bd79114412a448b833910923279365befffacc64d59640029",
  "source": "pragma solidity ^0.5.0;\n\nimport \"openzeppelin-solidity/contracts/token/ERC20/ERC20.sol\";\nimport \"openzeppelin-solidity/contracts/token/ERC20/ERC20Detailed.sol\";\nimport \"openzeppelin-solidity/contracts/access/roles/WhitelistedRole.sol\";\n//import \"openzeppelin-solidity/contracts/ownership/Ownable.sol\";\nimport \"./NaraMalsamiTokenTrade.sol\";\n\n\ncontract NaraMalsamiToken is ERC20, ERC20Detailed, WhitelistedRole, Ownable{\n    uint8 public constant DECIMALS = 18;\n    uint256 public constant INITIAL_SUPPLY = 10000000000 * (10 ** uint256(DECIMALS));\n    uint16 public constant fee = 1000; // 10000 = 100%\n\n    address public server;\n\n    event tradeMade(address maker, address tradeAddress);\n\n    constructor() public ERC20Detailed(\"NaraMalsamiToken\", \"NMT\", DECIMALS)\n    {\n        _mint(msg.sender, INITIAL_SUPPLY);\n        addWhitelisted(msg.sender);\n    }\n\n    function setServer(address _server) public onlyWhitelisted {\n        server = _server;\n    }\n\n    function getServer() public view returns(address){return server;}\n\n    function getDecimals() public pure returns (uint8){\n        return DECIMALS;\n    }\n\n    function newTrade(uint256 cap, uint256 dataNum, uint256 verifierNum) public returns(bool){\n        require(balanceOf(msg.sender) >= cap);\n        uint256 feeValue = cap.mul(fee).div(10000);\n        uint256 leftValue = cap - feeValue;\n\n        NaraMalsamiTokenTrade NMTT = new NaraMalsamiTokenTrade(this, msg.sender, leftValue, dataNum, verifierNum);\n        transfer(server, feeValue);\n        transfer(address(NMTT), leftValue);\n\n\n        emit tradeMade(msg.sender, address(NMTT));\n        return true;\n    }\n\n\n}",
  "sourcePath": "/Users/morris/Documents/NMT-Solidity-master/contracts/NaraMalsamiToken.sol",
  "compiler": {
    "name": "solc",
    "version": "0.5.8+commit.23d335f2.Emscripten.clang"
  },
  "schemaVersion": "3.0.10",
  "updatedAt": "2019-08-30T06:16:36.747Z",
  "devdoc": {
    "methods": {
      "allowance(address,address)": {
        "details": "Function to check the amount of tokens that an owner allowed to a spender.",
        "params": {
          "owner": "address The address which owns the funds.",
          "spender": "address The address which will spend the funds."
        },
        "return": "A uint256 specifying the amount of tokens still available for the spender."
      },
      "approve(address,uint256)": {
        "details": "Approve the passed address to spend the specified amount of tokens on behalf of msg.sender. Beware that changing an allowance with this method brings the risk that someone may use both the old and the new allowance by unfortunate transaction ordering. One possible solution to mitigate this race condition is to first reduce the spender's allowance to 0 and set the desired value afterwards: https://github.com/ethereum/EIPs/issues/20#issuecomment-263524729",
        "params": {
          "spender": "The address which will spend the funds.",
          "value": "The amount of tokens to be spent."
        }
      },
      "balanceOf(address)": {
        "details": "Gets the balance of the specified address.",
        "params": {
          "owner": "The address to query the balance of."
        },
        "return": "An uint256 representing the amount owned by the passed address."
      },
      "decimals()": {
        "return": "the number of decimals of the token."
      },
      "decreaseAllowance(address,uint256)": {
        "details": "Decrease the amount of tokens that an owner allowed to a spender. approve should be called when allowed_[_spender] == 0. To decrement allowed value is better to use this function to avoid 2 calls (and wait until the first transaction is mined) From MonolithDAO Token.sol Emits an Approval event.",
        "params": {
          "spender": "The address which will spend the funds.",
          "subtractedValue": "The amount of tokens to decrease the allowance by."
        }
      },
      "increaseAllowance(address,uint256)": {
        "details": "Increase the amount of tokens that an owner allowed to a spender. approve should be called when allowed_[_spender] == 0. To increment allowed value is better to use this function to avoid 2 calls (and wait until the first transaction is mined) From MonolithDAO Token.sol Emits an Approval event.",
        "params": {
          "addedValue": "The amount of tokens to increase the allowance by.",
          "spender": "The address which will spend the funds."
        }
      },
      "isOwner()": {
        "return": "true if `msg.sender` is the owner of the contract."
      },
      "name()": {
        "return": "the name of the token."
      },
      "owner()": {
        "return": "the address of the owner."
      },
      "renounceOwnership()": {
        "details": "Allows the current owner to relinquish control of the contract."
      },
      "symbol()": {
        "return": "the symbol of the token."
      },
      "totalSupply()": {
        "details": "Total number of tokens in existence"
      },
      "transfer(address,uint256)": {
        "details": "Transfer token for a specified address",
        "params": {
          "to": "The address to transfer to.",
          "value": "The amount to be transferred."
        }
      },
      "transferFrom(address,address,uint256)": {
        "details": "Transfer tokens from one address to another. Note that while this function emits an Approval event, this is not required as per the specification, and other compliant implementations may not emit the event.",
        "params": {
          "from": "address The address which you want to send tokens from",
          "to": "address The address which you want to transfer to",
          "value": "uint256 the amount of tokens to be transferred"
        }
      },
      "transferOwnership(address)": {
        "details": "Allows the current owner to transfer control of the contract to a newOwner.",
        "params": {
          "newOwner": "The address to transfer ownership to."
        }
      }
    }
  },
  "userdoc": {
    "methods": {
      "renounceOwnership()": {
        "notice": "Renouncing to ownership will leave the contract without an owner. It will not be possible to call the functions with the `onlyOwner` modifier anymore."
      }
    }
  }
}