{
  "contractName": "NaraMalsamiTokenTrade",
  "abi": [
    {
      "constant": false,
      "inputs": [],
      "name": "renounceOwnership",
      "outputs": [],
      "payable": false,
      "stateMutability": "nonpayable",
      "type": "function"
    },
    {
      "constant": true,
      "inputs": [],
      "name": "owner",
      "outputs": [
        {
          "name": "",
          "type": "address"
        }
      ],
      "payable": false,
      "stateMutability": "view",
      "type": "function"
    },
    {
      "constant": true,
      "inputs": [],
      "name": "isOwner",
      "outputs": [
        {
          "name": "",
          "type": "bool"
        }
      ],
      "payable": false,
      "stateMutability": "view",
      "type": "function"
    },
    {
      "constant": false,
      "inputs": [
        {
          "name": "newOwner",
          "type": "address"
        }
      ],
      "name": "transferOwnership",
      "outputs": [],
      "payable": false,
      "stateMutability": "nonpayable",
      "type": "function"
    },
    {
      "inputs": [
        {
          "name": "token",
          "type": "address"
        },
        {
          "name": "wallet",
          "type": "address"
        },
        {
          "name": "cap",
          "type": "uint256"
        },
        {
          "name": "dataGoal",
          "type": "uint256"
        },
        {
          "name": "verifierNum",
          "type": "uint256"
        }
      ],
      "payable": false,
      "stateMutability": "nonpayable",
      "type": "constructor"
    },
    {
      "payable": false,
      "stateMutability": "nonpayable",
      "type": "fallback"
    },
    {
      "anonymous": false,
      "inputs": [
        {
          "indexed": true,
          "name": "beneficiary",
          "type": "address"
        },
        {
          "indexed": false,
          "name": "tokenAmount",
          "type": "uint256"
        }
      ],
      "name": "tokensReceived",
      "type": "event"
    },
    {
      "anonymous": false,
      "inputs": [
        {
          "indexed": false,
          "name": "numOfData",
          "type": "uint256"
        },
        {
          "indexed": false,
          "name": "dataRaised",
          "type": "uint256"
        },
        {
          "indexed": false,
          "name": "dataGoal",
          "type": "uint256"
        },
        {
          "indexed": false,
          "name": "seller",
          "type": "address"
        }
      ],
      "name": "fileEmitted",
      "type": "event"
    },
    {
      "anonymous": false,
      "inputs": [
        {
          "indexed": true,
          "name": "previousOwner",
          "type": "address"
        },
        {
          "indexed": true,
          "name": "newOwner",
          "type": "address"
        }
      ],
      "name": "OwnershipTransferred",
      "type": "event"
    },
    {
      "constant": true,
      "inputs": [],
      "name": "token",
      "outputs": [
        {
          "name": "",
          "type": "address"
        }
      ],
      "payable": false,
      "stateMutability": "view",
      "type": "function"
    },
    {
      "constant": true,
      "inputs": [],
      "name": "cap",
      "outputs": [
        {
          "name": "",
          "type": "uint256"
        }
      ],
      "payable": false,
      "stateMutability": "view",
      "type": "function"
    },
    {
      "constant": true,
      "inputs": [],
      "name": "weiPerData",
      "outputs": [
        {
          "name": "",
          "type": "uint256"
        }
      ],
      "payable": false,
      "stateMutability": "view",
      "type": "function"
    },
    {
      "constant": true,
      "inputs": [],
      "name": "dataGoal",
      "outputs": [
        {
          "name": "",
          "type": "uint256"
        }
      ],
      "payable": false,
      "stateMutability": "view",
      "type": "function"
    },
    {
      "constant": true,
      "inputs": [],
      "name": "dataRaised",
      "outputs": [
        {
          "name": "",
          "type": "uint256"
        }
      ],
      "payable": false,
      "stateMutability": "view",
      "type": "function"
    },
    {
      "constant": true,
      "inputs": [],
      "name": "dataBlockCounter",
      "outputs": [
        {
          "name": "",
          "type": "uint256"
        }
      ],
      "payable": false,
      "stateMutability": "view",
      "type": "function"
    },
    {
      "constant": true,
      "inputs": [],
      "name": "tokenLeft",
      "outputs": [
        {
          "name": "",
          "type": "uint256"
        }
      ],
      "payable": false,
      "stateMutability": "view",
      "type": "function"
    },
    {
      "constant": true,
      "inputs": [],
      "name": "refundTokenAmount",
      "outputs": [
        {
          "name": "",
          "type": "uint256"
        }
      ],
      "payable": false,
      "stateMutability": "view",
      "type": "function"
    },
    {
      "constant": true,
      "inputs": [],
      "name": "dataStatus",
      "outputs": [
        {
          "name": "",
          "type": "uint256"
        },
        {
          "name": "",
          "type": "uint256"
        },
        {
          "name": "",
          "type": "uint256"
        },
        {
          "name": "",
          "type": "uint256"
        },
        {
          "name": "",
          "type": "uint256"
        }
      ],
      "payable": false,
      "stateMutability": "view",
      "type": "function"
    },
    {
      "constant": true,
      "inputs": [],
      "name": "transactionStatus",
      "outputs": [
        {
          "name": "",
          "type": "address"
        },
        {
          "name": "",
          "type": "uint256"
        }
      ],
      "payable": false,
      "stateMutability": "view",
      "type": "function"
    },
    {
      "constant": true,
      "inputs": [
        {
          "name": "serverHash",
          "type": "string"
        }
      ],
      "name": "getData",
      "outputs": [
        {
          "name": "",
          "type": "string"
        },
        {
          "name": "",
          "type": "uint256"
        },
        {
          "name": "",
          "type": "uint256"
        },
        {
          "name": "",
          "type": "address"
        }
      ],
      "payable": false,
      "stateMutability": "view",
      "type": "function"
    },
    {
      "constant": false,
      "inputs": [
        {
          "name": "serverHash",
          "type": "string"
        }
      ],
      "name": "giveTokens",
      "outputs": [],
      "payable": false,
      "stateMutability": "nonpayable",
      "type": "function"
    },
    {
      "constant": false,
      "inputs": [
        {
          "name": "serverHash",
          "type": "string"
        },
        {
          "name": "numOfData",
          "type": "uint256"
        },
        {
          "name": "accuracy",
          "type": "uint16"
        },
        {
          "name": "beneficiary",
          "type": "address"
        },
        {
          "name": "fileHash",
          "type": "string"
        }
      ],
      "name": "emitSeller",
      "outputs": [],
      "payable": false,
      "stateMutability": "nonpayable",
      "type": "function"
    },
    {
      "constant": false,
      "inputs": [
        {
          "name": "serverHash",
          "type": "string"
        },
        {
          "name": "numOfData",
          "type": "uint256"
        },
        {
          "name": "accuracy",
          "type": "uint16"
        },
        {
          "name": "beneficiary",
          "type": "address"
        }
      ],
      "name": "emitVerifier",
      "outputs": [],
      "payable": false,
      "stateMutability": "nonpayable",
      "type": "function"
    }
  ],
  "bytecode": "0x6080604052612710600260146101000a81548161ffff021916908361ffff160217905550610bb8600260166101000a81548161ffff021916908361ffff160217905550611b58600260186101000a81548161ffff021916908361ffff160217905550600a60045560006005556000600a556000600b556000600c556000600d60006101000a81548160ff021916908315150217905550348015620000a257600080fd5b5060405160a0806200273d833981018060405260a0811015620000c457600080fd5b810190808051906020019092919080519060200190929190805190602001909291908051906020019092919080519060200190929190505050336000806101000a81548173ffffffffffffffffffffffffffffffffffffffff021916908373ffffffffffffffffffffffffffffffffffffffff1602179055506000809054906101000a900473ffffffffffffffffffffffffffffffffffffffff1673ffffffffffffffffffffffffffffffffffffffff16600073ffffffffffffffffffffffffffffffffffffffff167f8be0079c531659141344cd1fd0a4f28419497f9722a3daafe3b4186f6b6457e060405160405180910390a383600260006101000a81548173ffffffffffffffffffffffffffffffffffffffff021916908373ffffffffffffffffffffffffffffffffffffffff1602179055506200020b84620003e660201b60201c565b84600160006101000a81548173ffffffffffffffffffffffffffffffffffffffff021916908373ffffffffffffffffffffffffffffffffffffffff16021790555082600381905550816006819055508060058190555060006007819055506000620002f3620002b1600260169054906101000a900461ffff1661ffff16600260189054906101000a900461ffff1661ffff166200041460201b62001f581790919060201c565b620002df600260169054906101000a900461ffff1661ffff16876200043460201b620015061790919060201c565b6200047260201b62001f8e1790919060201c565b905060006200031182866200049a60201b62001fb41790919060201c565b90506200032d84836200047260201b62001f8e1790919060201c565b600881905550620003666200035184866200043460201b620015061790919060201c565b826200047260201b62001f8e1790919060201c565b600981905550620003966200038a8584620004bb60201b620020921790919060201c565b620004de60201b60201c565b620003d9620003cd620003b885876200043460201b620015061790919060201c565b83620004bb60201b620020921790919060201c565b620004de60201b60201c565b505050505050506200064e565b620003f6620004fe60201b60201c565b6200040057600080fd5b62000411816200055560201b60201c565b50565b6000808284019050838110156200042a57600080fd5b8091505092915050565b6000808314156200044957600090506200046c565b60008284029050828482816200045b57fe5b04146200046757600080fd5b809150505b92915050565b60008082116200048157600080fd5b60008284816200048d57fe5b0490508091505092915050565b600082821115620004aa57600080fd5b600082840390508091505092915050565b600080821415620004cb57600080fd5b818381620004d557fe5b06905092915050565b620004fa81600c546200041460201b62001f581790919060201c565b5050565b60008060009054906101000a900473ffffffffffffffffffffffffffffffffffffffff1673ffffffffffffffffffffffffffffffffffffffff163373ffffffffffffffffffffffffffffffffffffffff1614905090565b600073ffffffffffffffffffffffffffffffffffffffff168173ffffffffffffffffffffffffffffffffffffffff1614156200059057600080fd5b8073ffffffffffffffffffffffffffffffffffffffff166000809054906101000a900473ffffffffffffffffffffffffffffffffffffffff1673ffffffffffffffffffffffffffffffffffffffff167f8be0079c531659141344cd1fd0a4f28419497f9722a3daafe3b4186f6b6457e060405160405180910390a3806000806101000a81548173ffffffffffffffffffffffffffffffffffffffff021916908373ffffffffffffffffffffffffffffffffffffffff16021790555050565b6120df806200065e6000396000f3fe608060405234801561001057600080fd5b50600436106101165760003560e01c8063ae55c888116100a2578063dc49be6211610071578063dc49be6214610636578063f2fde38b14610654578063f3e9371f14610698578063f7407b4a146106b6578063fc0c546a146106d457610116565b8063ae55c888146103d4578063c139e64c14610549578063c257e883146105fa578063c650e7381461061857610116565b806389af8ae9116100e957806389af8ae9146101cb5780638da5cb5b146102d15780638f32d59b1461031b5780639679dd7d1461033d57806396f80c5c1461035b57610116565b806316dd1f6914610118578063355274ea14610169578063505678ac14610187578063715018a6146101c1575b005b61012061071e565b604051808373ffffffffffffffffffffffffffffffffffffffff1673ffffffffffffffffffffffffffffffffffffffff1681526020018281526020019250505060405180910390f35b610171610754565b6040518082815260200191505060405180910390f35b61018f61075e565b604051808681526020018581526020018481526020018381526020018281526020019550505050505060405180910390f35b6101c9610786565b005b6102cf600480360360a08110156101e157600080fd5b81019080803590602001906401000000008111156101fe57600080fd5b82018360208201111561021057600080fd5b8035906020019184600183028401116401000000008311171561023257600080fd5b909192939192939080359060200190929190803561ffff169060200190929190803573ffffffffffffffffffffffffffffffffffffffff1690602001909291908035906020019064010000000081111561028b57600080fd5b82018360208201111561029d57600080fd5b803590602001918460018302840111640100000000831117156102bf57600080fd5b9091929391929390505050610856565b005b6102d9610ac4565b604051808273ffffffffffffffffffffffffffffffffffffffff1673ffffffffffffffffffffffffffffffffffffffff16815260200191505060405180910390f35b610323610aed565b604051808215151515815260200191505060405180910390f35b610345610b44565b6040518082815260200191505060405180910390f35b6103d26004803603602081101561037157600080fd5b810190808035906020019064010000000081111561038e57600080fd5b8201836020820111156103a057600080fd5b803590602001918460018302840111640100000000831117156103c257600080fd5b9091929391929390505050610c29565b005b61048d600480360360208110156103ea57600080fd5b810190808035906020019064010000000081111561040757600080fd5b82018360208201111561041957600080fd5b8035906020019184600183028401116401000000008311171561043b57600080fd5b91908080601f016020809104026020016040519081016040528093929190818152602001838380828437600081840152601f19601f820116905080830192505050505050509192919290505050610f3d565b60405180806020018581526020018481526020018373ffffffffffffffffffffffffffffffffffffffff1673ffffffffffffffffffffffffffffffffffffffff168152602001828103825286818151815260200191508051906020019080838360005b8381101561050b5780820151818401526020810190506104f0565b50505050905090810190601f1680156105385780820380516001836020036101000a031916815260200191505b509550505050505060405180910390f35b6105f86004803603608081101561055f57600080fd5b810190808035906020019064010000000081111561057c57600080fd5b82018360208201111561058e57600080fd5b803590602001918460018302840111640100000000831117156105b057600080fd5b909192939192939080359060200190929190803561ffff169060200190929190803573ffffffffffffffffffffffffffffffffffffffff169060200190929190505050611275565b005b610602611422565b6040518082815260200191505060405180910390f35b61062061142c565b6040518082815260200191505060405180910390f35b61063e6114a1565b6040518082815260200191505060405180910390f35b6106966004803603602081101561066a57600080fd5b81019080803573ffffffffffffffffffffffffffffffffffffffff1690602001909291905050506114ab565b005b6106a06114c8565b6040518082815260200191505060405180910390f35b6106be6114d2565b6040518082815260200191505060405180910390f35b6106dc6114dc565b604051808273ffffffffffffffffffffffffffffffffffffffff1673ffffffffffffffffffffffffffffffffffffffff16815260200191505060405180910390f35b600080600260009054906101000a900473ffffffffffffffffffffffffffffffffffffffff1661074c610b44565b915091509091565b6000600354905090565b6000806000806000600354600854600654600754600c54945094509450945094509091929394565b61078e610aed565b61079757600080fd5b600073ffffffffffffffffffffffffffffffffffffffff166000809054906101000a900473ffffffffffffffffffffffffffffffffffffffff1673ffffffffffffffffffffffffffffffffffffffff167f8be0079c531659141344cd1fd0a4f28419497f9722a3daafe3b4186f6b6457e060405160405180910390a360008060006101000a81548173ffffffffffffffffffffffffffffffffffffffff021916908373ffffffffffffffffffffffffffffffffffffffff160217905550565b61085e6114dc565b73ffffffffffffffffffffffffffffffffffffffff16633af32abf336040518263ffffffff1660e01b8152600401808273ffffffffffffffffffffffffffffffffffffffff1673ffffffffffffffffffffffffffffffffffffffff16815260200191505060206040518083038186803b1580156108da57600080fd5b505afa1580156108ee573d6000803e3d6000fd5b505050506040513d602081101561090457600080fd5b810190808051906020019092919050505061091e57600080fd5b60006109358660085461150690919063ffffffff16565b905061098683838080601f016020809104026020016040519081016040528093929190818152602001838380828437600081840152601f19601f820116905080830192505050505050508787611540565b6109d588888080601f016020809104026020016040519081016040528093929190818152602001838380828437600081840152601f19601f8201169050808301925050505050505085836115b3565b610a6a88888080601f016020809104026020016040519081016040528093929190818152602001838380828437600081840152601f19601f8201169050808301925050505050505087878787878080601f016020809104026020016040519081016040528093929190818152602001838380828437600081840152601f19601f82011690508083019250505050505050611626565b610aba88888080601f016020809104026020016040519081016040528093929190818152602001838380828437600081840152601f19601f820116905080830192505050505050508686846118f5565b5050505050505050565b60008060009054906101000a900473ffffffffffffffffffffffffffffffffffffffff16905090565b60008060009054906101000a900473ffffffffffffffffffffffffffffffffffffffff1673ffffffffffffffffffffffffffffffffffffffff163373ffffffffffffffffffffffffffffffffffffffff1614905090565b6000600c54600160009054906101000a900473ffffffffffffffffffffffffffffffffffffffff1673ffffffffffffffffffffffffffffffffffffffff166370a08231306040518263ffffffff1660e01b8152600401808273ffffffffffffffffffffffffffffffffffffffff1673ffffffffffffffffffffffffffffffffffffffff16815260200191505060206040518083038186803b158015610be857600080fd5b505afa158015610bfc573d6000803e3d6000fd5b505050506040513d6020811015610c1257600080fd5b810190808051906020019092919050505003905090565b610c316114dc565b73ffffffffffffffffffffffffffffffffffffffff16633af32abf336040518263ffffffff1660e01b8152600401808273ffffffffffffffffffffffffffffffffffffffff1673ffffffffffffffffffffffffffffffffffffffff16815260200191505060206040518083038186803b158015610cad57600080fd5b505afa158015610cc1573d6000803e3d6000fd5b505050506040513d6020811015610cd757600080fd5b8101908080519060200190929190505050610cf157600080fd5b610db482828080601f016020809104026020016040519081016040528093929190818152602001838380828437600081840152601f19601f82011690508083019250505050505050600e8484604051808383808284378083019250505092505050908152602001604051809103902060000160009054906101000a900473ffffffffffffffffffffffffffffffffffffffff16600e8585604051808383808284378083019250505092505050908152602001604051809103902060010154611a74565b610e7782828080601f016020809104026020016040519081016040528093929190818152602001838380828437600081840152601f19601f82011690508083019250505050505050600e8484604051808383808284378083019250505092505050908152602001604051809103902060000160009054906101000a900473ffffffffffffffffffffffffffffffffffffffff16600e8585604051808383808284378083019250505092505050908152602001604051809103902060010154611c32565b600e8282604051808383808284378083019250505092505050908152602001604051809103902060000160009054906101000a900473ffffffffffffffffffffffffffffffffffffffff1673ffffffffffffffffffffffffffffffffffffffff167f24a756d1a2c8f2c24ad07b6b6c6a46090bce16d2523224ca3aae963753b3622c600e84846040518083838082843780830192505050925050509081526020016040518091039020600101546040518082815260200191505060405180910390a25050565b60606000806000610f4c610aed565b610f5557600080fd5b6000600f866040518082805190602001908083835b60208310610f8d5780518252602082019150602081019050602083039250610f6a565b6001836020036101000a038019825116818451168082178552505050505050905001915050908152602001604051809103902060000180546001816001161561010002031660029004905011610fe257600080fd5b600f856040518082805190602001908083835b602083106110185780518252602082019150602081019050602083039250610ff5565b6001836020036101000a0380198251168184511680821785525050505050509050019150509081526020016040518091039020600001600f866040518082805190602001908083835b602083106110845780518252602082019150602081019050602083039250611061565b6001836020036101000a038019825116818451168082178552505050505050905001915050908152602001604051809103902060010154600f876040518082805190602001908083835b602083106110f157805182526020820191506020810190506020830392506110ce565b6001836020036101000a038019825116818451168082178552505050505050905001915050908152602001604051809103902060020160149054906101000a900461ffff16600f886040518082805190602001908083835b6020831061116c5780518252602082019150602081019050602083039250611149565b6001836020036101000a038019825116818451168082178552505050505050905001915050908152602001604051809103902060020160009054906101000a900473ffffffffffffffffffffffffffffffffffffffff16838054600181600116156101000203166002900480601f0160208091040260200160405190810160405280929190818152602001828054600181600116156101000203166002900480156112585780601f1061122d57610100808354040283529160200191611258565b820191906000526020600020905b81548152906001019060200180831161123b57829003601f168201915b505050505093508161ffff16915093509350935093509193509193565b61127d6114dc565b73ffffffffffffffffffffffffffffffffffffffff16633af32abf336040518263ffffffff1660e01b8152600401808273ffffffffffffffffffffffffffffffffffffffff1673ffffffffffffffffffffffffffffffffffffffff16815260200191505060206040518083038186803b1580156112f957600080fd5b505afa15801561130d573d6000803e3d6000fd5b505050506040513d602081101561132357600080fd5b810190808051906020019092919050505061133d57600080fd5b60006113548460095461150690919063ffffffff16565b9050600260149054906101000a900461ffff1661ffff168361ffff16111561137b57600080fd5b6113ca86868080601f016020809104026020016040519081016040528093929190818152602001838380828437600081840152601f19601f8201169050808301925050505050505083836115b3565b61141a86868080601f016020809104026020016040519081016040528093929190818152602001838380828437600081840152601f19601f820116905080830192505050505050508484846118f5565b505050505050565b6000600854905090565b6000611436610aed565b61143f57600080fd5b600260009054906101000a900473ffffffffffffffffffffffffffffffffffffffff1673ffffffffffffffffffffffffffffffffffffffff163373ffffffffffffffffffffffffffffffffffffffff161461149957600080fd5b600c54905090565b6000600654905090565b6114b3610aed565b6114bc57600080fd5b6114c581611e60565b50565b6000600a54905090565b6000600754905090565b6000600160009054906101000a900473ffffffffffffffffffffffffffffffffffffffff16905090565b600080831415611519576000905061153a565b600082840290508284828161152a57fe5b041461153557600080fd5b809150505b92915050565b600260149054906101000a900461ffff1661ffff168161ffff16111561156557600080fd5b600083511161157357600080fd5b600082141561158157600080fd5b6115896114a1565b6115a3836115956114d2565b611f5890919063ffffffff16565b11156115ae57600080fd5b505050565b600073ffffffffffffffffffffffffffffffffffffffff168273ffffffffffffffffffffffffffffffffffffffff1614156115ed57600080fd5b60008351116115fb57600080fd5b80611604610b44565b101561160f57600080fd5b611617611f77565b1561162157600080fd5b505050565b83600f866040518082805190602001908083835b6020831061165d578051825260208201915060208101905060208303925061163a565b6001836020036101000a03801982511681845116808217855250505050505090500191505090815260200160405180910390206001018190555082600f866040518082805190602001908083835b602083106116ce57805182526020820191506020810190506020830392506116ab565b6001836020036101000a038019825116818451168082178552505050505050905001915050908152602001604051809103902060020160146101000a81548161ffff021916908361ffff16021790555081600f866040518082805190602001908083835b602083106117555780518252602082019150602081019050602083039250611732565b6001836020036101000a038019825116818451168082178552505050505050905001915050908152602001604051809103902060020160006101000a81548173ffffffffffffffffffffffffffffffffffffffff021916908373ffffffffffffffffffffffffffffffffffffffff16021790555080600f866040518082805190602001908083835b6020831061180057805182526020820191506020810190506020830392506117dd565b6001836020036101000a03801982511681845116808217855250505050505090500191505090815260200160405180910390206000019080519060200190611849929190611fed565b5061185f84600754611f5890919063ffffffff16565b6007819055507ff3ed3d6eeb73afbb562f79fcf662eaaa3e17ee90a0be461d0970ea4e9b4ac8788461188f6114d2565b6118976114a1565b85604051808581526020018481526020018381526020018273ffffffffffffffffffffffffffffffffffffffff1673ffffffffffffffffffffffffffffffffffffffff16815260200194505050505060405180910390a15050505050565b6000611934600260149054906101000a900461ffff1661ffff166119268661ffff168561150690919063ffffffff16565b611f8e90919063ffffffff16565b905082600e866040518082805190602001908083835b6020831061196d578051825260208201915060208101905060208303925061194a565b6001836020036101000a038019825116818451168082178552505050505050905001915050908152602001604051809103902060000160006101000a81548173ffffffffffffffffffffffffffffffffffffffff021916908373ffffffffffffffffffffffffffffffffffffffff16021790555080600e866040518082805190602001908083835b60208310611a1857805182526020820191506020810190506020830392506119f5565b6001836020036101000a038019825116818451168082178552505050505050905001915050908152602001604051809103902060010181905550611a6d611a688284611fb490919063ffffffff16565b611fd4565b5050505050565b600073ffffffffffffffffffffffffffffffffffffffff168273ffffffffffffffffffffffffffffffffffffffff161415611aae57600080fd5b6000811415611abc57600080fd5b6000835111611aca57600080fd5b600115156010846040518082805190602001908083835b60208310611b045780518252602082019150602081019050602083039250611ae1565b6001836020036101000a038019825116818451168082178552505050505050905001915050908152602001604051809103902060010160009054906101000a900460ff1615151415611b5557600080fd5b8173ffffffffffffffffffffffffffffffffffffffff16600e846040518082805190602001908083835b60208310611ba25780518252602082019150602081019050602083039250611b7f565b6001836020036101000a038019825116818451168082178552505050505050905001915050908152602001604051809103902060000160009054906101000a900473ffffffffffffffffffffffffffffffffffffffff1673ffffffffffffffffffffffffffffffffffffffff1614611c1957600080fd5b80611c22610b44565b1015611c2d57600080fd5b505050565b806010846040518082805190602001908083835b60208310611c695780518252602082019150602081019050602083039250611c46565b6001836020036101000a03801982511681845116808217855250505050505090500191505090815260200160405180910390206000018190555060016010846040518082805190602001908083835b60208310611cdb5780518252602082019150602081019050602083039250611cb8565b6001836020036101000a038019825116818451168082178552505050505050905001915050908152602001604051809103902060010160006101000a81548160ff021916908315150217905550600160009054906101000a900473ffffffffffffffffffffffffffffffffffffffff1673ffffffffffffffffffffffffffffffffffffffff1663a9059cbb83836040518363ffffffff1660e01b8152600401808373ffffffffffffffffffffffffffffffffffffffff1673ffffffffffffffffffffffffffffffffffffffff16815260200182815260200192505050602060405180830381600087803b158015611dd157600080fd5b505af1158015611de5573d6000803e3d6000fd5b505050506040513d6020811015611dfb57600080fd5b8101908080519060200190929190505050508173ffffffffffffffffffffffffffffffffffffffff167f24a756d1a2c8f2c24ad07b6b6c6a46090bce16d2523224ca3aae963753b3622c826040518082815260200191505060405180910390a2505050565b600073ffffffffffffffffffffffffffffffffffffffff168173ffffffffffffffffffffffffffffffffffffffff161415611e9a57600080fd5b8073ffffffffffffffffffffffffffffffffffffffff166000809054906101000a900473ffffffffffffffffffffffffffffffffffffffff1673ffffffffffffffffffffffffffffffffffffffff167f8be0079c531659141344cd1fd0a4f28419497f9722a3daafe3b4186f6b6457e060405160405180910390a3806000806101000a81548173ffffffffffffffffffffffffffffffffffffffff021916908373ffffffffffffffffffffffffffffffffffffffff16021790555050565b600080828401905083811015611f6d57600080fd5b8091505092915050565b6000600d60009054906101000a900460ff16905090565b6000808211611f9c57600080fd5b6000828481611fa757fe5b0490508091505092915050565b600082821115611fc357600080fd5b600082840390508091505092915050565b611fe981600c54611f5890919063ffffffff16565b5050565b828054600181600116156101000203166002900490600052602060002090601f016020900481019282601f1061202e57805160ff191683800117855561205c565b8280016001018555821561205c579182015b8281111561205b578251825591602001919060010190612040565b5b509050612069919061206d565b5090565b61208f91905b8082111561208b576000816000905550600101612073565b5090565b90565b6000808214156120a157600080fd5b8183816120aa57fe5b0690509291505056fea165627a7a723058200d8697219c75e2c9505fd3550ad3ca736f5f5316459e224e0323da8d402c7d3c0029",
  "source": "pragma solidity ^0.5.0;\n\nimport \"openzeppelin-solidity/contracts/token/ERC20/SafeERC20.sol\";\nimport \"openzeppelin-solidity/contracts/ownership/Ownable.sol\";\n//import \"openzeppelin-solidity/contracts/access/roles/WhitelistAdminRole.sol\";\nimport \"./NaraMalsamiToken.sol\";\n\ncontract NaraMalsamiTokenTrade is Ownable{\n\n    using SafeMath for uint256;\n    using SafeMath for uint16;\n\n    NaraMalsamiToken private _token;    // Address of NMT\n    address private _wallet;            // Address of a buyer\n\n    uint16 private _maxAccuracy = 10000;  // 100% = 10000\n    uint16 private _sellerRatio = 3000;\n    uint16 private _verifierRatio = 7000;\n\n    uint256 private _cap;\n    uint256 private _sellerNum=10;      // Not used yet\n    uint256 private _verifierNum = 0;\n\n    uint256 private _dataGoal;\n    uint256 private _dataRaised;\n\n    uint256 private _weiPerData;        // Tokens per 1 data\n    uint256 private _weiPerVerifier;    // Tokens per 1-data-verified-by-1-verifier\n\n    uint256 private _dataBlockCounter = 0;      // Not used yet\n    uint256 private _verifierBlockCounter = 0;  // Not used yet\n\n    uint256 private _refundTokenAmount = 0;     // Sum of divided integer leftovers and accuracy based token deduction\n    bool private _refundClaimed = false;\n\n    struct Claim {\n        uint256 _tokenAmount;\n        bool    _exist;\n    }\n    struct DataBlock{\n        string  _fileHash;\n        uint256 _numOfData;\n        address _seller;\n        uint16   _accuracy;\n    }\n    struct UserBlock{\n        address _beneficiary;\n        uint256 _tokenAmount;\n    }\n    mapping (string => UserBlock) private _userData;    // serverHash => UserBlock\n    mapping (string => DataBlock) private _fileData;    // serverHash => DataBlock : Seller(_userdata) and _filedata shares same serverHash!\n    mapping (string => Claim) private _claimed;         // serverHash => Claim\n\n    event tokensReceived    (address indexed beneficiary, uint256 tokenAmount);\n    event fileEmitted       (uint256 numOfData, uint256 dataRaised, uint256 dataGoal, address seller);\n\n    constructor(\n        NaraMalsamiToken token,\n        address wallet,\n        uint256 cap,\n        uint256 dataGoal,\n        uint256 verifierNum\n    )\n    public {\n        _wallet = wallet;\n        transferOwnership(wallet);\n\n        _token = token;\n        _cap = cap;\n        _dataGoal = dataGoal;\n        _verifierNum = verifierNum;\n        _dataRaised = 0;\n\n        // Sum of tokens that sellers can get\n        uint256 sellerSum = cap\n        .mul(_sellerRatio)\n        .div(_verifierRatio.add(_sellerRatio));\n\n        // Sum of tokens that verifiers can get\n        uint256 verifierSum = cap.sub(sellerSum);\n\n        _weiPerData = sellerSum.div(dataGoal);\n        _weiPerVerifier = verifierSum.div(dataGoal.mul(verifierNum));\n\n        // Freeze integer leftovers\n        freeze(sellerSum.mod(dataGoal));\n        freeze(verifierSum.mod(dataGoal.mul(verifierNum)));\n    }\n\n    modifier onlyServer(){\n        require(token().isWhitelisted(msg.sender));\n        _;\n    }\n\n    //fallback\n    function () external {\n\n    }\n\n    //getters\n    function token()                public view returns (NaraMalsamiToken) {\n        return _token;\n    }\n    function cap()                  public view returns (uint256) {\n        return _cap;\n    }\n    function weiPerData()           public view returns (uint256) {\n        return _weiPerData;\n    }\n    function dataGoal()             public view returns (uint256) {\n        return _dataGoal;\n    }\n    function dataRaised()           public view returns (uint256) {\n        return _dataRaised;\n    }\n    function dataBlockCounter()     public view returns (uint256) {\n        return _dataBlockCounter;\n    }\n    function tokenLeft()            public view returns (uint256) {\n        return _token.balanceOf(address(this)) - _refundTokenAmount;\n    }\n    function refundClaimed()        internal view returns (bool) {\n        return _refundClaimed;\n    }\n    function refundTokenAmount()    public view onlyOwner returns(uint256) {\n        require(msg.sender == _wallet);\n        return _refundTokenAmount;\n    }\n\n\n\n\n    function dataStatus() public view\n    returns(uint256, uint256, uint256, uint256, uint256){\n        return(_cap, _weiPerData, _dataGoal, _dataRaised, _refundTokenAmount);\n    }\n\n    function transactionStatus() public view\n    returns(address, uint256){\n        return(_wallet, tokenLeft());\n    }\n\n    function getData(string memory serverHash) public view onlyOwner\n    returns(string memory, uint256, uint256, address){\n        require(bytes(_fileData[serverHash]._fileHash).length > 0);\n\n        return (_fileData[serverHash]._fileHash, _fileData[serverHash]._numOfData,\n        _fileData[serverHash]._accuracy, _fileData[serverHash]._seller);\n    }\n\n    function giveTokens(string calldata serverHash) external onlyServer{\n        _preValidatePurchase(serverHash, _userData[serverHash]._beneficiary, _userData[serverHash]._tokenAmount);\n        _deliverTokens(serverHash, _userData[serverHash]._beneficiary, _userData[serverHash]._tokenAmount);\n\n        emit tokensReceived(_userData[serverHash]._beneficiary, _userData[serverHash]._tokenAmount);\n    }\n\n    function emitSeller     (string calldata serverHash, uint256 numOfData, uint16 accuracy, address beneficiary, string calldata fileHash) external onlyServer {\n        uint256 tokenAmount = _weiPerData.mul(numOfData);\n\n        _preValidateData(fileHash, numOfData, accuracy);            // will be removed later\n        _preValidateUser(serverHash, beneficiary, tokenAmount);\n\n        _setFile(serverHash, numOfData, accuracy, beneficiary, fileHash);\n        _setUser(serverHash, accuracy, beneficiary, tokenAmount);\n    }\n\n    function emitVerifier   (string calldata serverHash, uint256 numOfData, uint16 accuracy, address beneficiary) external onlyServer {\n        uint256 tokenAmount = _weiPerVerifier.mul(numOfData);\n        require(accuracy <= _maxAccuracy);                        // will be removed later\n\n        _preValidateUser(serverHash, beneficiary, tokenAmount);\n        _setUser(serverHash, accuracy, beneficiary, tokenAmount);\n    }\n\n\n    function _setFile(string memory serverHash, uint256 numOfData, uint16 accuracy, address beneficiary, string memory fileHash) internal{\n        _fileData[serverHash]._numOfData    = numOfData;\n        _fileData[serverHash]._accuracy     = accuracy;\n        _fileData[serverHash]._seller       = beneficiary;\n        _fileData[serverHash]._fileHash     = fileHash;\n\n        _dataRaised = _dataRaised.add(numOfData);\n\n        emit fileEmitted(numOfData, dataRaised(), dataGoal(), beneficiary);\n    }\n\n    function _setUser(string memory serverHash, uint16 accuracy, address beneficiary, uint256 tokenAmount) internal{\n        uint256 tokenGet = tokenAmount.mul(accuracy).div(_maxAccuracy);\n        _userData[serverHash]._beneficiary = beneficiary;\n        _userData[serverHash]._tokenAmount = tokenGet;\n        freeze(tokenAmount.sub(tokenGet));\n    }\n\n\n    function _deliverTokens(string memory serverHash, address beneficiary, uint256 tokenAmount) internal{\n        _claimed[serverHash]._tokenAmount = tokenAmount;\n        _claimed[serverHash]._exist = true;\n\n        //_token.transferFrom(address(this), beneficiary, tokenAmount);\n        _token.transfer(beneficiary, tokenAmount);\n        emit tokensReceived(beneficiary, tokenAmount);\n    }\n\n\n    function _preValidateData(string memory fileHash, uint256 numOfData, uint16 accuracy) internal view {\n        require(accuracy <= _maxAccuracy);\n        require(bytes(fileHash).length > 0);\n        require(numOfData != 0);\n        require(dataRaised().add(numOfData) <= dataGoal());\n    }\n\n    function _preValidateUser(string memory serverHash, address beneficiary, uint256 tokenAmount) internal view{\n        require(beneficiary != address(0));\n        require(bytes(serverHash).length > 0);\n        require(tokenLeft() >= tokenAmount);\n        require(!refundClaimed());\n    }\n\n    function _preValidatePurchase(string memory serverHash, address beneficiary, uint256 tokenAmount) internal view {\n        require(beneficiary != address(0));\n        require(tokenAmount != 0);\n        require(bytes(serverHash).length > 0);\n        require(_claimed[serverHash]._exist != true);\n        require(_userData[serverHash]._beneficiary == beneficiary);\n        require(tokenLeft() >= tokenAmount);\n    }\n\n    function freeze(uint256 amount) internal {\n        _refundTokenAmount.add(amount);\n    }\n\n}",
  "sourcePath": "/Users/morris/Documents/NMT-Solidity-master/contracts/NaraMalsamiTokenTrade.sol",
  "compiler": {
    "name": "solc",
    "version": "0.5.8+commit.23d335f2.Emscripten.clang"
  },
  "schemaVersion": "3.0.10",
  "updatedAt": "2019-08-30T06:16:36.756Z",
  "devdoc": {
    "methods": {
      "isOwner()": {
        "return": "true if `msg.sender` is the owner of the contract."
      },
      "owner()": {
        "return": "the address of the owner."
      },
      "renounceOwnership()": {
        "details": "Allows the current owner to relinquish control of the contract."
      },
      "transferOwnership(address)": {
        "details": "Allows the current owner to transfer control of the contract to a newOwner.",
        "params": {
          "newOwner": "The address to transfer ownership to."
        }
      }
    }
  },
  "userdoc": {
    "methods": {
      "renounceOwnership()": {
        "notice": "Renouncing to ownership will leave the contract without an owner. It will not be possible to call the functions with the `onlyOwner` modifier anymore."
      }
    }
  }
}